{
  "contractName": "MyNFTContract",
  "abi": [
    {
      "inputs": [],
      "stateMutability": "nonpayable",
      "type": "constructor"
    },
    {
      "anonymous": false,
      "inputs": [
        {
          "indexed": true,
          "internalType": "address",
          "name": "owner",
          "type": "address"
        },
        {
          "indexed": true,
          "internalType": "address",
          "name": "approved",
          "type": "address"
        },
        {
          "indexed": true,
          "internalType": "uint256",
          "name": "tokenId",
          "type": "uint256"
        }
      ],
      "name": "Approval",
      "type": "event"
    },
    {
      "anonymous": false,
      "inputs": [
        {
          "indexed": true,
          "internalType": "address",
          "name": "owner",
          "type": "address"
        },
        {
          "indexed": true,
          "internalType": "address",
          "name": "operator",
          "type": "address"
        },
        {
          "indexed": false,
          "internalType": "bool",
          "name": "approved",
          "type": "bool"
        }
      ],
      "name": "ApprovalForAll",
      "type": "event"
    },
    {
      "anonymous": false,
      "inputs": [
        {
          "indexed": true,
          "internalType": "address",
          "name": "previousOwner",
          "type": "address"
        },
        {
          "indexed": true,
          "internalType": "address",
          "name": "newOwner",
          "type": "address"
        }
      ],
      "name": "OwnershipTransferred",
      "type": "event"
    },
    {
      "anonymous": false,
      "inputs": [
        {
          "indexed": true,
          "internalType": "address",
          "name": "from",
          "type": "address"
        },
        {
          "indexed": true,
          "internalType": "address",
          "name": "to",
          "type": "address"
        },
        {
          "indexed": true,
          "internalType": "uint256",
          "name": "tokenId",
          "type": "uint256"
        }
      ],
      "name": "Transfer",
      "type": "event"
    },
    {
      "inputs": [
        {
          "internalType": "address",
          "name": "to",
          "type": "address"
        },
        {
          "internalType": "uint256",
          "name": "tokenId",
          "type": "uint256"
        }
      ],
      "name": "approve",
      "outputs": [],
      "stateMutability": "nonpayable",
      "type": "function"
    },
    {
      "inputs": [
        {
          "internalType": "address",
          "name": "owner",
          "type": "address"
        }
      ],
      "name": "balanceOf",
      "outputs": [
        {
          "internalType": "uint256",
          "name": "",
          "type": "uint256"
        }
      ],
      "stateMutability": "view",
      "type": "function",
      "constant": true
    },
    {
      "inputs": [
        {
          "internalType": "uint256",
          "name": "tokenId",
          "type": "uint256"
        }
      ],
      "name": "getApproved",
      "outputs": [
        {
          "internalType": "address",
          "name": "",
          "type": "address"
        }
      ],
      "stateMutability": "view",
      "type": "function",
      "constant": true
    },
    {
      "inputs": [
        {
          "internalType": "address",
          "name": "owner",
          "type": "address"
        },
        {
          "internalType": "address",
          "name": "operator",
          "type": "address"
        }
      ],
      "name": "isApprovedForAll",
      "outputs": [
        {
          "internalType": "bool",
          "name": "",
          "type": "bool"
        }
      ],
      "stateMutability": "view",
      "type": "function",
      "constant": true
    },
    {
      "inputs": [],
      "name": "name",
      "outputs": [
        {
          "internalType": "string",
          "name": "",
          "type": "string"
        }
      ],
      "stateMutability": "view",
      "type": "function",
      "constant": true
    },
    {
      "inputs": [],
      "name": "owner",
      "outputs": [
        {
          "internalType": "address",
          "name": "",
          "type": "address"
        }
      ],
      "stateMutability": "view",
      "type": "function",
      "constant": true
    },
    {
      "inputs": [
        {
          "internalType": "uint256",
          "name": "tokenId",
          "type": "uint256"
        }
      ],
      "name": "ownerOf",
      "outputs": [
        {
          "internalType": "address",
          "name": "",
          "type": "address"
        }
      ],
      "stateMutability": "view",
      "type": "function",
      "constant": true
    },
    {
      "inputs": [],
      "name": "renounceOwnership",
      "outputs": [],
      "stateMutability": "nonpayable",
      "type": "function"
    },
    {
      "inputs": [
        {
          "internalType": "address",
          "name": "from",
          "type": "address"
        },
        {
          "internalType": "address",
          "name": "to",
          "type": "address"
        },
        {
          "internalType": "uint256",
          "name": "tokenId",
          "type": "uint256"
        }
      ],
      "name": "safeTransferFrom",
      "outputs": [],
      "stateMutability": "nonpayable",
      "type": "function"
    },
    {
      "inputs": [
        {
          "internalType": "address",
          "name": "from",
          "type": "address"
        },
        {
          "internalType": "address",
          "name": "to",
          "type": "address"
        },
        {
          "internalType": "uint256",
          "name": "tokenId",
          "type": "uint256"
        },
        {
          "internalType": "bytes",
          "name": "_data",
          "type": "bytes"
        }
      ],
      "name": "safeTransferFrom",
      "outputs": [],
      "stateMutability": "nonpayable",
      "type": "function"
    },
    {
      "inputs": [
        {
          "internalType": "address",
          "name": "operator",
          "type": "address"
        },
        {
          "internalType": "bool",
          "name": "approved",
          "type": "bool"
        }
      ],
      "name": "setApprovalForAll",
      "outputs": [],
      "stateMutability": "nonpayable",
      "type": "function"
    },
    {
      "inputs": [
        {
          "internalType": "uint256",
          "name": "",
          "type": "uint256"
        }
      ],
      "name": "someData",
      "outputs": [
        {
          "internalType": "string",
          "name": "",
          "type": "string"
        }
      ],
      "stateMutability": "view",
      "type": "function",
      "constant": true
    },
    {
      "inputs": [
        {
          "internalType": "bytes4",
          "name": "interfaceId",
          "type": "bytes4"
        }
      ],
      "name": "supportsInterface",
      "outputs": [
        {
          "internalType": "bool",
          "name": "",
          "type": "bool"
        }
      ],
      "stateMutability": "view",
      "type": "function",
      "constant": true
    },
    {
      "inputs": [],
      "name": "symbol",
      "outputs": [
        {
          "internalType": "string",
          "name": "",
          "type": "string"
        }
      ],
      "stateMutability": "view",
      "type": "function",
      "constant": true
    },
    {
      "inputs": [
        {
          "internalType": "uint256",
          "name": "index",
          "type": "uint256"
        }
      ],
      "name": "tokenByIndex",
      "outputs": [
        {
          "internalType": "uint256",
          "name": "",
          "type": "uint256"
        }
      ],
      "stateMutability": "view",
      "type": "function",
      "constant": true
    },
    {
      "inputs": [
        {
          "internalType": "address",
          "name": "owner",
          "type": "address"
        },
        {
          "internalType": "uint256",
          "name": "index",
          "type": "uint256"
        }
      ],
      "name": "tokenOfOwnerByIndex",
      "outputs": [
        {
          "internalType": "uint256",
          "name": "",
          "type": "uint256"
        }
      ],
      "stateMutability": "view",
      "type": "function",
      "constant": true
    },
    {
      "inputs": [
        {
          "internalType": "uint256",
          "name": "tokenId",
          "type": "uint256"
        }
      ],
      "name": "tokenURI",
      "outputs": [
        {
          "internalType": "string",
          "name": "",
          "type": "string"
        }
      ],
      "stateMutability": "view",
      "type": "function",
      "constant": true
    },
    {
      "inputs": [],
      "name": "totalSupply",
      "outputs": [
        {
          "internalType": "uint256",
          "name": "",
          "type": "uint256"
        }
      ],
      "stateMutability": "view",
      "type": "function",
      "constant": true
    },
    {
      "inputs": [
        {
          "internalType": "address",
          "name": "from",
          "type": "address"
        },
        {
          "internalType": "address",
          "name": "to",
          "type": "address"
        },
        {
          "internalType": "uint256",
          "name": "tokenId",
          "type": "uint256"
        }
      ],
      "name": "transferFrom",
      "outputs": [],
      "stateMutability": "nonpayable",
      "type": "function"
    },
    {
      "inputs": [
        {
          "internalType": "address",
          "name": "newOwner",
          "type": "address"
        }
      ],
      "name": "transferOwnership",
      "outputs": [],
      "stateMutability": "nonpayable",
      "type": "function"
    },
    {
      "inputs": [
        {
          "internalType": "string",
          "name": "_data",
          "type": "string"
        }
      ],
      "name": "mint",
      "outputs": [],
      "stateMutability": "nonpayable",
      "type": "function"
    },
    {
      "inputs": [
        {
          "internalType": "string",
          "name": "_data",
          "type": "string"
        },
        {
          "internalType": "uint256",
          "name": "somenum",
          "type": "uint256"
        }
      ],
      "name": "mintSpecial",
      "outputs": [],
      "stateMutability": "nonpayable",
      "type": "function"
    }
  ],
  "bytecode": "0x60806040523480156200001157600080fd5b506040518060400160405280600d81526020017f4d794e4654436f6e7472616374000000000000000000000000000000000000008152506040518060400160405280600481526020017f534e465400000000000000000000000000000000000000000000000000000000815250816000908051906020019062000096929190620001a6565b508060019080519060200190620000af929190620001a6565b505050620000d2620000c6620000d860201b60201c565b620000e060201b60201c565b620002bb565b600033905090565b6000600a60009054906101000a900473ffffffffffffffffffffffffffffffffffffffff16905081600a60006101000a81548173ffffffffffffffffffffffffffffffffffffffff021916908373ffffffffffffffffffffffffffffffffffffffff1602179055508173ffffffffffffffffffffffffffffffffffffffff168173ffffffffffffffffffffffffffffffffffffffff167f8be0079c531659141344cd1fd0a4f28419497f9722a3daafe3b4186f6b6457e060405160405180910390a35050565b828054620001b49062000256565b90600052602060002090601f016020900481019282620001d8576000855562000224565b82601f10620001f357805160ff191683800117855562000224565b8280016001018555821562000224579182015b828111156200022357825182559160200191906001019062000206565b5b50905062000233919062000237565b5090565b5b808211156200025257600081600090555060010162000238565b5090565b600060028204905060018216806200026f57607f821691505b602082108114156200028657620002856200028c565b5b50919050565b7f4e487b7100000000000000000000000000000000000000000000000000000000600052602260045260246000fd5b61380f80620002cb6000396000f3fe608060405234801561001057600080fd5b50600436106101425760003560e01c806370a08231116100b8578063b88d4fde1161007c578063b88d4fde14610389578063c87b56dd146103a5578063cbe255e3146103d5578063d85d3d27146103f1578063e985e9c51461040d578063f2fde38b1461043d57610142565b806370a08231146102f7578063715018a6146103275780638da5cb5b1461033157806395d89b411461034f578063a22cb4651461036d57610142565b806320267f3a1161010a57806320267f3a146101ff57806323b872dd1461022f5780632f745c591461024b57806342842e0e1461027b5780634f6ccce7146102975780636352211e146102c757610142565b806301ffc9a71461014757806306fdde0314610177578063081812fc14610195578063095ea7b3146101c557806318160ddd146101e1575b600080fd5b610161600480360381019061015c91906125ac565b610459565b60405161016e9190612b06565b60405180910390f35b61017f6104d3565b60405161018c9190612b21565b60405180910390f35b6101af60048036038101906101aa91906126ab565b610565565b6040516101bc9190612a9f565b60405180910390f35b6101df60048036038101906101da919061256c565b6105ea565b005b6101e9610702565b6040516101f69190612dc3565b60405180910390f35b610219600480360381019061021491906126ab565b61070f565b6040516102269190612b21565b60405180910390f35b61024960048036038101906102449190612456565b6107bb565b005b6102656004803603810190610260919061256c565b61081b565b6040516102729190612dc3565b60405180910390f35b61029560048036038101906102909190612456565b6108c0565b005b6102b160048036038101906102ac91906126ab565b6108e0565b6040516102be9190612dc3565b60405180910390f35b6102e160048036038101906102dc91906126ab565b610951565b6040516102ee9190612a9f565b60405180910390f35b610311600480360381019061030c91906123e9565b610a03565b60405161031e9190612dc3565b60405180910390f35b61032f610abb565b005b610339610b43565b6040516103469190612a9f565b60405180910390f35b610357610b6d565b6040516103649190612b21565b60405180910390f35b6103876004803603810190610382919061252c565b610bff565b005b6103a3600480360381019061039e91906124a9565b610d80565b005b6103bf60048036038101906103ba91906126ab565b610de2565b6040516103cc9190612b21565b60405180910390f35b6103ef60048036038101906103ea919061264f565b610e89565b005b61040b60048036038101906104069190612606565b610f9b565b005b61042760048036038101906104229190612416565b611069565b6040516104349190612b06565b60405180910390f35b610457600480360381019061045291906123e9565b6110fd565b005b60007f780e9d63000000000000000000000000000000000000000000000000000000007bffffffffffffffffffffffffffffffffffffffffffffffffffffffff1916827bffffffffffffffffffffffffffffffffffffffffffffffffffffffff191614806104cc57506104cb826111f5565b5b9050919050565b6060600080546104e290613019565b80601f016020809104026020016040519081016040528092919081815260200182805461050e90613019565b801561055b5780601f106105305761010080835404028352916020019161055b565b820191906000526020600020905b81548152906001019060200180831161053e57829003601f168201915b5050505050905090565b6000610570826112d7565b6105af576040517f08c379a00000000000000000000000000000000000000000000000000000000081526004016105a690612ce3565b60405180910390fd5b6004600083815260200190815260200160002060009054906101000a900473ffffffffffffffffffffffffffffffffffffffff169050919050565b60006105f582610951565b90508073ffffffffffffffffffffffffffffffffffffffff168373ffffffffffffffffffffffffffffffffffffffff161415610666576040517f08c379a000000000000000000000000000000000000000000000000000000000815260040161065d90612d63565b60405180910390fd5b8073ffffffffffffffffffffffffffffffffffffffff16610685611343565b73ffffffffffffffffffffffffffffffffffffffff1614806106b457506106b3816106ae611343565b611069565b5b6106f3576040517f08c379a00000000000000000000000000000000000000000000000000000000081526004016106ea90612c63565b60405180910390fd5b6106fd838361134b565b505050565b6000600880549050905090565b600c818154811061071f57600080fd5b90600052602060002001600091509050805461073a90613019565b80601f016020809104026020016040519081016040528092919081815260200182805461076690613019565b80156107b35780601f10610788576101008083540402835291602001916107b3565b820191906000526020600020905b81548152906001019060200180831161079657829003601f168201915b505050505081565b6107cc6107c6611343565b82611404565b61080b576040517f08c379a000000000000000000000000000000000000000000000000000000000815260040161080290612d83565b60405180910390fd5b6108168383836114e2565b505050565b600061082683610a03565b8210610867576040517f08c379a000000000000000000000000000000000000000000000000000000000815260040161085e90612b63565b60405180910390fd5b600660008473ffffffffffffffffffffffffffffffffffffffff1673ffffffffffffffffffffffffffffffffffffffff168152602001908152602001600020600083815260200190815260200160002054905092915050565b6108db83838360405180602001604052806000815250610d80565b505050565b60006108ea610702565b821061092b576040517f08c379a000000000000000000000000000000000000000000000000000000000815260040161092290612da3565b60405180910390fd5b6008828154811061093f5761093e6131b2565b5b90600052602060002001549050919050565b6000806002600084815260200190815260200160002060009054906101000a900473ffffffffffffffffffffffffffffffffffffffff169050600073ffffffffffffffffffffffffffffffffffffffff168173ffffffffffffffffffffffffffffffffffffffff1614156109fa576040517f08c379a00000000000000000000000000000000000000000000000000000000081526004016109f190612ca3565b60405180910390fd5b80915050919050565b60008073ffffffffffffffffffffffffffffffffffffffff168273ffffffffffffffffffffffffffffffffffffffff161415610a74576040517f08c379a0000000000000000000000000000000000000000000000000000000008152600401610a6b90612c83565b60405180910390fd5b600360008373ffffffffffffffffffffffffffffffffffffffff1673ffffffffffffffffffffffffffffffffffffffff168152602001908152602001600020549050919050565b610ac3611343565b73ffffffffffffffffffffffffffffffffffffffff16610ae1610b43565b73ffffffffffffffffffffffffffffffffffffffff1614610b37576040517f08c379a0000000000000000000000000000000000000000000000000000000008152600401610b2e90612d03565b60405180910390fd5b610b41600061173e565b565b6000600a60009054906101000a900473ffffffffffffffffffffffffffffffffffffffff16905090565b606060018054610b7c90613019565b80601f0160208091040260200160405190810160405280929190818152602001828054610ba890613019565b8015610bf55780601f10610bca57610100808354040283529160200191610bf5565b820191906000526020600020905b815481529060010190602001808311610bd857829003601f168201915b5050505050905090565b610c07611343565b73ffffffffffffffffffffffffffffffffffffffff168273ffffffffffffffffffffffffffffffffffffffff161415610c75576040517f08c379a0000000000000000000000000000000000000000000000000000000008152600401610c6c90612c23565b60405180910390fd5b8060056000610c82611343565b73ffffffffffffffffffffffffffffffffffffffff1673ffffffffffffffffffffffffffffffffffffffff16815260200190815260200160002060008473ffffffffffffffffffffffffffffffffffffffff1673ffffffffffffffffffffffffffffffffffffffff16815260200190815260200160002060006101000a81548160ff0219169083151502179055508173ffffffffffffffffffffffffffffffffffffffff16610d2f611343565b73ffffffffffffffffffffffffffffffffffffffff167f17307eab39ab6107e8899845ad3d59bd9653f200f220920489ca2b5937696c3183604051610d749190612b06565b60405180910390a35050565b610d91610d8b611343565b83611404565b610dd0576040517f08c379a0000000000000000000000000000000000000000000000000000000008152600401610dc790612d83565b60405180910390fd5b610ddc84848484611804565b50505050565b6060610ded826112d7565b610e2c576040517f08c379a0000000000000000000000000000000000000000000000000000000008152600401610e2390612d43565b60405180910390fd5b6000610e36611860565b90506000815111610e565760405180602001604052806000815250610e81565b80610e6084611877565b604051602001610e71929190612a7b565b6040516020818303038152906040525b915050919050565b600d82604051610e999190612a64565b908152602001604051809103902060009054906101000a900460ff1615610ef5576040517f08c379a0000000000000000000000000000000000000000000000000000000008152600401610eec90612b43565b60405180910390fd5b60028111610f38576040517f08c379a0000000000000000000000000000000000000000000000000000000008152600401610f2f90612bc3565b60405180910390fd5b610f42600b6119d8565b6000610f4e600b6119ee565b9050600c83908060018154018082558091505060019003906000526020600020016000909190919091509080519060200190610f8b9291906121fd565b50610f9633826119fc565b505050565b600d81604051610fab9190612a64565b908152602001604051809103902060009054906101000a900460ff1615611007576040517f08c379a0000000000000000000000000000000000000000000000000000000008152600401610ffe90612b43565b60405180910390fd5b611011600b6119d8565b600061101d600b6119ee565b9050600c8290806001815401808255809150506001900390600052602060002001600090919091909150908051906020019061105a9291906121fd565b5061106533826119fc565b5050565b6000600560008473ffffffffffffffffffffffffffffffffffffffff1673ffffffffffffffffffffffffffffffffffffffff16815260200190815260200160002060008373ffffffffffffffffffffffffffffffffffffffff1673ffffffffffffffffffffffffffffffffffffffff16815260200190815260200160002060009054906101000a900460ff16905092915050565b611105611343565b73ffffffffffffffffffffffffffffffffffffffff16611123610b43565b73ffffffffffffffffffffffffffffffffffffffff1614611179576040517f08c379a000000000000000000000000000000000000000000000000000000000815260040161117090612d03565b60405180910390fd5b600073ffffffffffffffffffffffffffffffffffffffff168173ffffffffffffffffffffffffffffffffffffffff1614156111e9576040517f08c379a00000000000000000000000000000000000000000000000000000000081526004016111e090612ba3565b60405180910390fd5b6111f28161173e565b50565b60007f80ac58cd000000000000000000000000000000000000000000000000000000007bffffffffffffffffffffffffffffffffffffffffffffffffffffffff1916827bffffffffffffffffffffffffffffffffffffffffffffffffffffffff191614806112c057507f5b5e139f000000000000000000000000000000000000000000000000000000007bffffffffffffffffffffffffffffffffffffffffffffffffffffffff1916827bffffffffffffffffffffffffffffffffffffffffffffffffffffffff1916145b806112d057506112cf82611bca565b5b9050919050565b60008073ffffffffffffffffffffffffffffffffffffffff166002600084815260200190815260200160002060009054906101000a900473ffffffffffffffffffffffffffffffffffffffff1673ffffffffffffffffffffffffffffffffffffffff1614159050919050565b600033905090565b816004600083815260200190815260200160002060006101000a81548173ffffffffffffffffffffffffffffffffffffffff021916908373ffffffffffffffffffffffffffffffffffffffff160217905550808273ffffffffffffffffffffffffffffffffffffffff166113be83610951565b73ffffffffffffffffffffffffffffffffffffffff167f8c5be1e5ebec7d5bd14f71427d1e84f3dd0314c0f7b2291e5b200ac8c7c3b92560405160405180910390a45050565b600061140f826112d7565b61144e576040517f08c379a000000000000000000000000000000000000000000000000000000000815260040161144590612c43565b60405180910390fd5b600061145983610951565b90508073ffffffffffffffffffffffffffffffffffffffff168473ffffffffffffffffffffffffffffffffffffffff1614806114c857508373ffffffffffffffffffffffffffffffffffffffff166114b084610565565b73ffffffffffffffffffffffffffffffffffffffff16145b806114d957506114d88185611069565b5b91505092915050565b8273ffffffffffffffffffffffffffffffffffffffff1661150282610951565b73ffffffffffffffffffffffffffffffffffffffff1614611558576040517f08c379a000000000000000000000000000000000000000000000000000000000815260040161154f90612d23565b60405180910390fd5b600073ffffffffffffffffffffffffffffffffffffffff168273ffffffffffffffffffffffffffffffffffffffff1614156115c8576040517f08c379a00000000000000000000000000000000000000000000000000000000081526004016115bf90612c03565b60405180910390fd5b6115d3838383611c34565b6115de60008261134b565b6001600360008573ffffffffffffffffffffffffffffffffffffffff1673ffffffffffffffffffffffffffffffffffffffff168152602001908152602001600020600082825461162e9190612f2f565b925050819055506001600360008473ffffffffffffffffffffffffffffffffffffffff1673ffffffffffffffffffffffffffffffffffffffff16815260200190815260200160002060008282546116859190612ea8565b92505081905550816002600083815260200190815260200160002060006101000a81548173ffffffffffffffffffffffffffffffffffffffff021916908373ffffffffffffffffffffffffffffffffffffffff160217905550808273ffffffffffffffffffffffffffffffffffffffff168473ffffffffffffffffffffffffffffffffffffffff167fddf252ad1be2c89b69c2b068fc378daa952ba7f163c4a11628f55a4df523b3ef60405160405180910390a4505050565b6000600a60009054906101000a900473ffffffffffffffffffffffffffffffffffffffff16905081600a60006101000a81548173ffffffffffffffffffffffffffffffffffffffff021916908373ffffffffffffffffffffffffffffffffffffffff1602179055508173ffffffffffffffffffffffffffffffffffffffff168173ffffffffffffffffffffffffffffffffffffffff167f8be0079c531659141344cd1fd0a4f28419497f9722a3daafe3b4186f6b6457e060405160405180910390a35050565b61180f8484846114e2565b61181b84848484611d48565b61185a576040517f08c379a000000000000000000000000000000000000000000000000000000000815260040161185190612b83565b60405180910390fd5b50505050565b606060405180602001604052806000815250905090565b606060008214156118bf576040518060400160405280600181526020017f300000000000000000000000000000000000000000000000000000000000000081525090506119d3565b600082905060005b600082146118f15780806118da9061307c565b915050600a826118ea9190612efe565b91506118c7565b60008167ffffffffffffffff81111561190d5761190c6131e1565b5b6040519080825280601f01601f19166020018201604052801561193f5781602001600182028036833780820191505090505b5090505b600085146119cc576001826119589190612f2f565b9150600a8561196791906130c5565b60306119739190612ea8565b60f81b818381518110611989576119886131b2565b5b60200101907effffffffffffffffffffffffffffffffffffffffffffffffffffffffffffff1916908160001a905350600a856119c59190612efe565b9450611943565b8093505050505b919050565b6001816000016000828254019250508190555050565b600081600001549050919050565b600073ffffffffffffffffffffffffffffffffffffffff168273ffffffffffffffffffffffffffffffffffffffff161415611a6c576040517f08c379a0000000000000000000000000000000000000000000000000000000008152600401611a6390612cc3565b60405180910390fd5b611a75816112d7565b15611ab5576040517f08c379a0000000000000000000000000000000000000000000000000000000008152600401611aac90612be3565b60405180910390fd5b611ac160008383611c34565b6001600360008473ffffffffffffffffffffffffffffffffffffffff1673ffffffffffffffffffffffffffffffffffffffff1681526020019081526020016000206000828254611b119190612ea8565b92505081905550816002600083815260200190815260200160002060006101000a81548173ffffffffffffffffffffffffffffffffffffffff021916908373ffffffffffffffffffffffffffffffffffffffff160217905550808273ffffffffffffffffffffffffffffffffffffffff16600073ffffffffffffffffffffffffffffffffffffffff167fddf252ad1be2c89b69c2b068fc378daa952ba7f163c4a11628f55a4df523b3ef60405160405180910390a45050565b60007f01ffc9a7000000000000000000000000000000000000000000000000000000007bffffffffffffffffffffffffffffffffffffffffffffffffffffffff1916827bffffffffffffffffffffffffffffffffffffffffffffffffffffffff1916149050919050565b611c3f838383611edf565b600073ffffffffffffffffffffffffffffffffffffffff168373ffffffffffffffffffffffffffffffffffffffff161415611c8257611c7d81611ee4565b611cc1565b8173ffffffffffffffffffffffffffffffffffffffff168373ffffffffffffffffffffffffffffffffffffffff1614611cc057611cbf8382611f2d565b5b5b600073ffffffffffffffffffffffffffffffffffffffff168273ffffffffffffffffffffffffffffffffffffffff161415611d0457611cff8161209a565b611d43565b8273ffffffffffffffffffffffffffffffffffffffff168273ffffffffffffffffffffffffffffffffffffffff1614611d4257611d41828261216b565b5b5b505050565b6000611d698473ffffffffffffffffffffffffffffffffffffffff166121ea565b15611ed2578373ffffffffffffffffffffffffffffffffffffffff1663150b7a02611d92611343565b8786866040518563ffffffff1660e01b8152600401611db49493929190612aba565b602060405180830381600087803b158015611dce57600080fd5b505af1925050508015611dff57506040513d601f19601f82011682018060405250810190611dfc91906125d9565b60015b611e82573d8060008114611e2f576040519150601f19603f3d011682016040523d82523d6000602084013e611e34565b606091505b50600081511415611e7a576040517f08c379a0000000000000000000000000000000000000000000000000000000008152600401611e7190612b83565b60405180910390fd5b805181602001fd5b63150b7a0260e01b7bffffffffffffffffffffffffffffffffffffffffffffffffffffffff1916817bffffffffffffffffffffffffffffffffffffffffffffffffffffffff191614915050611ed7565b600190505b949350505050565b505050565b6008805490506009600083815260200190815260200160002081905550600881908060018154018082558091505060019003906000526020600020016000909190919091505550565b60006001611f3a84610a03565b611f449190612f2f565b9050600060076000848152602001908152602001600020549050818114612029576000600660008673ffffffffffffffffffffffffffffffffffffffff1673ffffffffffffffffffffffffffffffffffffffff168152602001908152602001600020600084815260200190815260200160002054905080600660008773ffffffffffffffffffffffffffffffffffffffff1673ffffffffffffffffffffffffffffffffffffffff168152602001908152602001600020600084815260200190815260200160002081905550816007600083815260200190815260200160002081905550505b6007600084815260200190815260200160002060009055600660008573ffffffffffffffffffffffffffffffffffffffff1673ffffffffffffffffffffffffffffffffffffffff16815260200190815260200160002060008381526020019081526020016000206000905550505050565b600060016008805490506120ae9190612f2f565b90506000600960008481526020019081526020016000205490506000600883815481106120de576120dd6131b2565b5b906000526020600020015490508060088381548110612100576120ff6131b2565b5b90600052602060002001819055508160096000838152602001908152602001600020819055506009600085815260200190815260200160002060009055600880548061214f5761214e613183565b5b6001900381819060005260206000200160009055905550505050565b600061217683610a03565b905081600660008573ffffffffffffffffffffffffffffffffffffffff1673ffffffffffffffffffffffffffffffffffffffff168152602001908152602001600020600083815260200190815260200160002081905550806007600084815260200190815260200160002081905550505050565b600080823b905060008111915050919050565b82805461220990613019565b90600052602060002090601f01602090048101928261222b5760008555612272565b82601f1061224457805160ff1916838001178555612272565b82800160010185558215612272579182015b82811115612271578251825591602001919060010190612256565b5b50905061227f9190612283565b5090565b5b8082111561229c576000816000905550600101612284565b5090565b60006122b36122ae84612e03565b612dde565b9050828152602081018484840111156122cf576122ce613215565b5b6122da848285612fd7565b509392505050565b60006122f56122f084612e34565b612dde565b90508281526020810184848401111561231157612310613215565b5b61231c848285612fd7565b509392505050565b6000813590506123338161377d565b92915050565b60008135905061234881613794565b92915050565b60008135905061235d816137ab565b92915050565b600081519050612372816137ab565b92915050565b600082601f83011261238d5761238c613210565b5b813561239d8482602086016122a0565b91505092915050565b600082601f8301126123bb576123ba613210565b5b81356123cb8482602086016122e2565b91505092915050565b6000813590506123e3816137c2565b92915050565b6000602082840312156123ff576123fe61321f565b5b600061240d84828501612324565b91505092915050565b6000806040838503121561242d5761242c61321f565b5b600061243b85828601612324565b925050602061244c85828601612324565b9150509250929050565b60008060006060848603121561246f5761246e61321f565b5b600061247d86828701612324565b935050602061248e86828701612324565b925050604061249f868287016123d4565b9150509250925092565b600080600080608085870312156124c3576124c261321f565b5b60006124d187828801612324565b94505060206124e287828801612324565b93505060406124f3878288016123d4565b925050606085013567ffffffffffffffff8111156125145761251361321a565b5b61252087828801612378565b91505092959194509250565b600080604083850312156125435761254261321f565b5b600061255185828601612324565b925050602061256285828601612339565b9150509250929050565b600080604083850312156125835761258261321f565b5b600061259185828601612324565b92505060206125a2858286016123d4565b9150509250929050565b6000602082840312156125c2576125c161321f565b5b60006125d08482850161234e565b91505092915050565b6000602082840312156125ef576125ee61321f565b5b60006125fd84828501612363565b91505092915050565b60006020828403121561261c5761261b61321f565b5b600082013567ffffffffffffffff81111561263a5761263961321a565b5b612646848285016123a6565b91505092915050565b600080604083850312156126665761266561321f565b5b600083013567ffffffffffffffff8111156126845761268361321a565b5b612690858286016123a6565b92505060206126a1858286016123d4565b9150509250929050565b6000602082840312156126c1576126c061321f565b5b60006126cf848285016123d4565b91505092915050565b6126e181612f63565b82525050565b6126f081612f75565b82525050565b600061270182612e65565b61270b8185612e7b565b935061271b818560208601612fe6565b61272481613224565b840191505092915050565b600061273a82612e70565b6127448185612e8c565b9350612754818560208601612fe6565b61275d81613224565b840191505092915050565b600061277382612e70565b61277d8185612e9d565b935061278d818560208601612fe6565b80840191505092915050565b60006127a6601683612e8c565b91506127b182613235565b602082019050919050565b60006127c9602b83612e8c565b91506127d48261325e565b604082019050919050565b60006127ec603283612e8c565b91506127f7826132ad565b604082019050919050565b600061280f602683612e8c565b915061281a826132fc565b604082019050919050565b6000612832601683612e8c565b915061283d8261334b565b602082019050919050565b6000612855601c83612e8c565b915061286082613374565b602082019050919050565b6000612878602483612e8c565b91506128838261339d565b604082019050919050565b600061289b601983612e8c565b91506128a6826133ec565b602082019050919050565b60006128be602c83612e8c565b91506128c982613415565b604082019050919050565b60006128e1603883612e8c565b91506128ec82613464565b604082019050919050565b6000612904602a83612e8c565b915061290f826134b3565b604082019050919050565b6000612927602983612e8c565b915061293282613502565b604082019050919050565b600061294a602083612e8c565b915061295582613551565b602082019050919050565b600061296d602c83612e8c565b91506129788261357a565b604082019050919050565b6000612990602083612e8c565b915061299b826135c9565b602082019050919050565b60006129b3602983612e8c565b91506129be826135f2565b604082019050919050565b60006129d6602f83612e8c565b91506129e182613641565b604082019050919050565b60006129f9602183612e8c565b9150612a0482613690565b604082019050919050565b6000612a1c603183612e8c565b9150612a27826136df565b604082019050919050565b6000612a3f602c83612e8c565b9150612a4a8261372e565b604082019050919050565b612a5e81612fcd565b82525050565b6000612a708284612768565b915081905092915050565b6000612a878285612768565b9150612a938284612768565b91508190509392505050565b6000602082019050612ab460008301846126d8565b92915050565b6000608082019050612acf60008301876126d8565b612adc60208301866126d8565b612ae96040830185612a55565b8181036060830152612afb81846126f6565b905095945050505050565b6000602082019050612b1b60008301846126e7565b92915050565b60006020820190508181036000830152612b3b818461272f565b905092915050565b60006020820190508181036000830152612b5c81612799565b9050919050565b60006020820190508181036000830152612b7c816127bc565b9050919050565b60006020820190508181036000830152612b9c816127df565b9050919050565b60006020820190508181036000830152612bbc81612802565b9050919050565b60006020820190508181036000830152612bdc81612825565b9050919050565b60006020820190508181036000830152612bfc81612848565b9050919050565b60006020820190508181036000830152612c1c8161286b565b9050919050565b60006020820190508181036000830152612c3c8161288e565b9050919050565b60006020820190508181036000830152612c5c816128b1565b9050919050565b60006020820190508181036000830152612c7c816128d4565b9050919050565b60006020820190508181036000830152612c9c816128f7565b9050919050565b60006020820190508181036000830152612cbc8161291a565b9050919050565b60006020820190508181036000830152612cdc8161293d565b9050919050565b60006020820190508181036000830152612cfc81612960565b9050919050565b60006020820190508181036000830152612d1c81612983565b9050919050565b60006020820190508181036000830152612d3c816129a6565b9050919050565b60006020820190508181036000830152612d5c816129c9565b9050919050565b60006020820190508181036000830152612d7c816129ec565b9050919050565b60006020820190508181036000830152612d9c81612a0f565b9050919050565b60006020820190508181036000830152612dbc81612a32565b9050919050565b6000602082019050612dd86000830184612a55565b92915050565b6000612de8612df9565b9050612df4828261304b565b919050565b6000604051905090565b600067ffffffffffffffff821115612e1e57612e1d6131e1565b5b612e2782613224565b9050602081019050919050565b600067ffffffffffffffff821115612e4f57612e4e6131e1565b5b612e5882613224565b9050602081019050919050565b600081519050919050565b600081519050919050565b600082825260208201905092915050565b600082825260208201905092915050565b600081905092915050565b6000612eb382612fcd565b9150612ebe83612fcd565b9250827fffffffffffffffffffffffffffffffffffffffffffffffffffffffffffffffff03821115612ef357612ef26130f6565b5b828201905092915050565b6000612f0982612fcd565b9150612f1483612fcd565b925082612f2457612f23613125565b5b828204905092915050565b6000612f3a82612fcd565b9150612f4583612fcd565b925082821015612f5857612f576130f6565b5b828203905092915050565b6000612f6e82612fad565b9050919050565b60008115159050919050565b60007fffffffff0000000000000000000000000000000000000000000000000000000082169050919050565b600073ffffffffffffffffffffffffffffffffffffffff82169050919050565b6000819050919050565b82818337600083830152505050565b60005b83811015613004578082015181840152602081019050612fe9565b83811115613013576000848401525b50505050565b6000600282049050600182168061303157607f821691505b6020821081141561304557613044613154565b5b50919050565b61305482613224565b810181811067ffffffffffffffff82111715613073576130726131e1565b5b80604052505050565b600061308782612fcd565b91507fffffffffffffffffffffffffffffffffffffffffffffffffffffffffffffffff8214156130ba576130b96130f6565b5b600182019050919050565b60006130d082612fcd565b91506130db83612fcd565b9250826130eb576130ea613125565b5b828206905092915050565b7f4e487b7100000000000000000000000000000000000000000000000000000000600052601160045260246000fd5b7f4e487b7100000000000000000000000000000000000000000000000000000000600052601260045260246000fd5b7f4e487b7100000000000000000000000000000000000000000000000000000000600052602260045260246000fd5b7f4e487b7100000000000000000000000000000000000000000000000000000000600052603160045260246000fd5b7f4e487b7100000000000000000000000000000000000000000000000000000000600052603260045260246000fd5b7f4e487b7100000000000000000000000000000000000000000000000000000000600052604160045260246000fd5b600080fd5b600080fd5b600080fd5b600080fd5b6000601f19601f8301169050919050565b7f6d696e742072657175697265206572726f72206f6e6500000000000000000000600082015250565b7f455243373231456e756d657261626c653a206f776e657220696e646578206f7560008201527f74206f6620626f756e6473000000000000000000000000000000000000000000602082015250565b7f4552433732313a207472616e7366657220746f206e6f6e20455243373231526560008201527f63656976657220696d706c656d656e7465720000000000000000000000000000602082015250565b7f4f776e61626c653a206e6577206f776e657220697320746865207a65726f206160008201527f6464726573730000000000000000000000000000000000000000000000000000602082015250565b7f736f6d656e756d2072657175697265207468696e677900000000000000000000600082015250565b7f4552433732313a20746f6b656e20616c7265616479206d696e74656400000000600082015250565b7f4552433732313a207472616e7366657220746f20746865207a65726f2061646460008201527f7265737300000000000000000000000000000000000000000000000000000000602082015250565b7f4552433732313a20617070726f766520746f2063616c6c657200000000000000600082015250565b7f4552433732313a206f70657261746f7220717565727920666f72206e6f6e657860008201527f697374656e7420746f6b656e0000000000000000000000000000000000000000602082015250565b7f4552433732313a20617070726f76652063616c6c6572206973206e6f74206f7760008201527f6e6572206e6f7220617070726f76656420666f7220616c6c0000000000000000602082015250565b7f4552433732313a2062616c616e636520717565727920666f7220746865207a6560008201527f726f206164647265737300000000000000000000000000000000000000000000602082015250565b7f4552433732313a206f776e657220717565727920666f72206e6f6e657869737460008201527f656e7420746f6b656e0000000000000000000000000000000000000000000000602082015250565b7f4552433732313a206d696e7420746f20746865207a65726f2061646472657373600082015250565b7f4552433732313a20617070726f76656420717565727920666f72206e6f6e657860008201527f697374656e7420746f6b656e0000000000000000000000000000000000000000602082015250565b7f4f776e61626c653a2063616c6c6572206973206e6f7420746865206f776e6572600082015250565b7f4552433732313a207472616e73666572206f6620746f6b656e2074686174206960008201527f73206e6f74206f776e0000000000000000000000000000000000000000000000602082015250565b7f4552433732314d657461646174613a2055524920717565727920666f72206e6f60008201527f6e6578697374656e7420746f6b656e0000000000000000000000000000000000602082015250565b7f4552433732313a20617070726f76616c20746f2063757272656e74206f776e6560008201527f7200000000000000000000000000000000000000000000000000000000000000602082015250565b7f4552433732313a207472616e736665722063616c6c6572206973206e6f74206f60008201527f776e6572206e6f7220617070726f766564000000000000000000000000000000602082015250565b7f455243373231456e756d657261626c653a20676c6f62616c20696e646578206f60008201527f7574206f6620626f756e64730000000000000000000000000000000000000000602082015250565b61378681612f63565b811461379157600080fd5b50565b61379d81612f75565b81146137a857600080fd5b50565b6137b481612f81565b81146137bf57600080fd5b50565b6137cb81612fcd565b81146137d657600080fd5b5056fea264697066735822122067b2a857aa2d060fc2ce3adc84fc61e93acbb76c8ec51d518f6358cdf6ff52cd64736f6c63430008060033",
  "immutableReferences": {},
  "source": "// SPDX-License-Identifier: MIT\r\npragma solidity 0.8.6;\r\n\r\nimport \"@openzeppelin/contracts/token/ERC721/extensions/ERC721Enumerable.sol\";\r\n// import \"@openzeppelin/contracts/token/ERC721/ERC721.sol\";\r\nimport \"@openzeppelin/contracts/utils/Counters.sol\";\r\nimport \"@openzeppelin/contracts/access/Ownable.sol\";\r\n\r\n//keccak256 hash function\r\n\r\ncontract MyNFTContract is ERC721Enumerable, Ownable  {\r\n\r\n    using Counters for Counters.Counter;\r\n    Counters.Counter private _tokenIds;\r\n\r\n    string[] public someData;\r\n    mapping(string => bool) _dataExists; //for UNIQUE ONLY\r\n\r\n    constructor() ERC721(\"MyNFTContract\", \"SNFT\") { }\r\n\r\n    // function mintNft(address receiver, string memory tokenURI) external onlyOwner returns (uint256) {\r\n    //     _tokenIds.increment();\r\n\r\n    //     uint256 newNftTokenId = _tokenIds.current();\r\n    //     _mint(receiver, newNftTokenId);\r\n    //     _setTokenURI(newNftTokenId, tokenURI);\r\n\r\n    //     return newNftTokenId;\r\n    // }\r\n\r\n    // shouldnt be public, check out minter roles\r\n    function mint(string memory _data) public {\r\n\r\n        require(!_dataExists[_data], \"mint require error one\"); //for UNIQUE ONLY\r\n\r\n        _tokenIds.increment();\r\n        uint256 newNftTokenId = _tokenIds.current();\r\n\r\n        someData.push(_data);\r\n        _mint(msg.sender, newNftTokenId);\r\n        // _dataExists[_data] = true;\r\n        \r\n\r\n\r\n\r\n        // Color add it\r\n        // Call mint func\r\n        // track it\r\n    }\r\n\r\n     function mintSpecial(string memory _data, uint256 somenum) public {\r\n\r\n        require(!_dataExists[_data], \"mint require error one\"); //for UNIQUE ONLY\r\n        require(somenum > 2, \"somenum require thingy\"); \r\n\r\n        _tokenIds.increment();\r\n        uint256 newNftTokenId = _tokenIds.current();\r\n\r\n        someData.push(_data);\r\n        _mint(msg.sender, newNftTokenId);\r\n        // _dataExists[_data] = true;\r\n        \r\n\r\n\r\n\r\n        // Color add it\r\n        // Call mint func\r\n        // track it\r\n    }\r\n\r\n}",
  "sourcePath": "D:/Code/eth/nft_one/src/contracts/MyNFTContract.sol",
  "compiler": {
    "name": "solc",
    "version": "0.8.6+commit.11564f7e.Emscripten.clang"
  },
  "schemaVersion": "3.4.1",
  "updatedAt": "2021-07-24T08:05:17.236Z",
  "networkType": "ethereum",
  "devdoc": {
    "kind": "dev",
    "methods": {
      "approve(address,uint256)": {
        "details": "See {IERC721-approve}."
      },
      "balanceOf(address)": {
        "details": "See {IERC721-balanceOf}."
      },
      "getApproved(uint256)": {
        "details": "See {IERC721-getApproved}."
      },
      "isApprovedForAll(address,address)": {
        "details": "See {IERC721-isApprovedForAll}."
      },
      "name()": {
        "details": "See {IERC721Metadata-name}."
      },
      "owner()": {
        "details": "Returns the address of the current owner."
      },
      "ownerOf(uint256)": {
        "details": "See {IERC721-ownerOf}."
      },
      "renounceOwnership()": {
        "details": "Leaves the contract without owner. It will not be possible to call `onlyOwner` functions anymore. Can only be called by the current owner. NOTE: Renouncing ownership will leave the contract without an owner, thereby removing any functionality that is only available to the owner."
      },
      "safeTransferFrom(address,address,uint256)": {
        "details": "See {IERC721-safeTransferFrom}."
      },
      "safeTransferFrom(address,address,uint256,bytes)": {
        "details": "See {IERC721-safeTransferFrom}."
      },
      "setApprovalForAll(address,bool)": {
        "details": "See {IERC721-setApprovalForAll}."
      },
      "supportsInterface(bytes4)": {
        "details": "See {IERC165-supportsInterface}."
      },
      "symbol()": {
        "details": "See {IERC721Metadata-symbol}."
      },
      "tokenByIndex(uint256)": {
        "details": "See {IERC721Enumerable-tokenByIndex}."
      },
      "tokenOfOwnerByIndex(address,uint256)": {
        "details": "See {IERC721Enumerable-tokenOfOwnerByIndex}."
      },
      "tokenURI(uint256)": {
        "details": "See {IERC721Metadata-tokenURI}."
      },
      "totalSupply()": {
        "details": "See {IERC721Enumerable-totalSupply}."
      },
      "transferFrom(address,address,uint256)": {
        "details": "See {IERC721-transferFrom}."
      },
      "transferOwnership(address)": {
        "details": "Transfers ownership of the contract to a new account (`newOwner`). Can only be called by the current owner."
      }
    },
    "version": 1
  },
  "userdoc": {
    "kind": "user",
    "methods": {},
    "version": 1
  }
}